:020000040000FA
:060000000A128A110C280F
:10000800FE00030EF2000A08F3000A128A113629CC
:100018000A128A110F28F701F801F90183010A125F
:100028008A11FA28F6008128831203139F121F12DF
:100038009F111F11B528831203139F121F129F11BE
:100048001F15B528831203139F121F129F151F1126
:10005800B528831203139F121F129F151F15B52869
:10006800831203139F121F169F111F11B5288312A5
:1000780003139F121F169F111F15B5288312031310
:100088009F121F169F151F11B528831203139F1265
:100098001F169F151F15B528831203139F161F12CD
:1000A8009F111F11B528831203139F161F129F114A
:1000B8001F15B528831203139F161F129F151F11B2
:1000C800B528831203139F161F129F151F15B528F5
:1000D800831203139F161F169F111F11B528831231
:1000E80003139F161F169F111F15B528831203139C
:1000F8009F121F129F111F11B5287608F400F501F1
:100108007508003A031989287A287408003A0319EF
:100118001828013A03191F28033A03192628013A17
:1001280003192D28073A03193428013A03193B28E3
:10013800033A03194228013A031949280F3A0319C7
:100148005028013A03195728033A03195E28013A3F
:1001580003196528073A03196C28013A031973280B
:100168007A28080060308316031788008901FF3059
:1001780083160313890085168312031389018501E9
:10018800831603130F178F160F120F1405300A1258
:100198008A1116200A128A11831603131F129F123E
:1001A800831203131F139F17831603139F138312BE
:1001B80003131F140F3083120313A100A10BE228AD
:1001C800E528831203139F14F901F8018B170B1705
:1001D8008C11831603138C15F401F501F6012430F4
:1001E8000A128A1160210A128A1108000A128A1159
:1001F800B6200A128A11831203139F1804290529AD
:10020800FF281F0CA200220C0F39053A031D0D29E7
:100218000E2917291E08A2002208F9001F08C33951
:1002280018389F0028291F0CA200220C0F39063A03
:10023800031D1F29202928291E08A2002208F800CA
:100248001F08C33914389F000F3083120313A2000C
:10025800A20B2C292F29831203139F14FF280A129B
:100268008A110C28831203138C1D3B293C2956291B
:100278000A128A117E210A128A11F1007108F70008
:100288007703031D48294929502978080A128A1139
:100298008E210A128A11562979080A128A118E218A
:1002A8000A128A11831203138C1173088A00720EC2
:1002B8008300FE0E7E0E090083120313A00083162E
:1002C8000313871283120313201D6B296C297229CB
:1002D8007608831603139400871578297408760422
:1002E80083160313940087118312031320087504DF
:1002F800940008000A128A1187210A128A118312AF
:1003080003131308080083160313141C8C298D2962
:1003180087290800F000700883120313930008006F
:04400E00D420FF3F7C
:00000001FF
