:020000040000FA
:060000000A128A110C280F
:10000800FE00030EF1000A08F2000A128A111628EF
:100018000A128A110F28F501F601F70183010A1265
:100028008A117A28831203138C1D1B281C28732815
:100038001412141B202821282528941F2428252839
:100048002C281308F0007008F700141394131416E2
:1000580083160313941A312832284F281419352887
:1000680036284F28831203131308F0007008F7008E
:100078008C11141643288312031313088500831662
:100088000313141C482849283F28A630F000F00B19
:100098004B2800007028941A522853287028141DE1
:1000A800562857287028831203131308F000700885
:1000B800F700831603131410831203130808930020
:1000C8001416A630F000F00B6728000083160313FF
:1000D80014186F2870286A28831203138C11720869
:1000E8008A00710E8300FE0E7E0E09000A128A1124
:1000F800AF200A128A118312031306188428852850
:100108009128003006180130760603198C288D28AE
:1001180091280130F40074088807861894289528D7
:100128009F28003086180130750603199C289D28E1
:100138009F2801308802003006180130F600003090
:1001480086180130F5000F30F400740888057F2800
:100158000A128A110C28831603178801890183164D
:100168000313850188010330860083120313880175
:10017800860185017030831603138F040F148113D1
:1001880015149514F601F50140300A128A11CF2092
:100198000A128A110800F3007308831603139300E8
:1001A80036308312031394008030831603139400AF
:1001B80001309100871507168B170B17831203134D
:0A01C8008C11831603138C15080038
:04400E00D420FF3F7C
:00000001FF
