:020000040000FA
:060000000A128A110C280F
:10000800FE00030EF1000A08F2000A128A1188297C
:100018000A128A110F28F701F801F901FA0183126F
:100028000313AF01B001B101B201B301B401B501CD
:10003800B601B701B801B90183010A128A1124284F
:100048000A128A1161210A128A1164308312031379
:10005800A2000030A3007A08AB00AC012B08A40072
:100068002C08A5000A128A11CD200A128A118312BF
:1000780003132208AD002D08BC000A30A20000308E
:10008800A3003C08AB00AC012B08F3002C08F400DB
:100098009C30F500FF30F6000A128A1136210A1248
:1000A8008A117A08730783120313A40074080318CB
:1000B800740AA5000A128A11CD200A128A11831225
:1000C80003132208AD002D08BB009C30AB002B08A1
:1000D800F3003C080A128A11BA210A128A11831203
:1000E8000313AC00F630AD002D08F3003B080A12EC
:1000F8008A11BA210A128A11831203132C077A076C
:10010800AE002E08BA003030AB002B08BC073030E8
:10011800AB002B08BB073030AB002B08BA078C1E8E
:1001280096289728C5280A128A11DB210A128A11F3
:1001380083120313AB002B08F8007808AB002B08D8
:10014800F90073307806031DAA28AB28C2283C089A
:100158000A128A11CF210A128A11831203133B084B
:100168000A128A11CF210A128A11831203133A083C
:100178000A128A11CF210A128A11F8018312031375
:100188008C127A0888007908850029280A128A11B1
:100198000C2883120313A801A31FD328D428DB2813
:1001A800A209A309A20A0319A30AA801A80AA51F5C
:1001B800DE28DF28E828A409A509A40A0319A50A46
:1001C8000130A6002608A806A901AA0122082304CE
:1001D8000319EF28F0282729A701A70AFE280130CC
:1001E8000310A20DA30DFF3E031DF4280130A60045
:1001F8002608A707A31F01290229F32801300310A5
:10020800A90DAA0DFF3E031D032923082502031D7E
:100218000F2922082402031C122913291A2922084B
:10022800A4022308031CA503A50229140130031006
:10023800A30CA20CFF3E031D1B290130A702031DBE
:10024800262927290229280803192B292C2931298D
:10025800A909AA09A90A0319AA0A2A08A3002908A8
:10026800A200080083120313A001A101731C3D29F9
:100278003E294629750883120313A0070318A10A0B
:100288007608A10701300310F50DF60DFF3E031D9A
:10029800472901300310F40CF30CFF3E031D4E29CF
:1002A80073087404031D59295A293A298312031320
:1002B8002108F4002008F3000800831603178801BA
:1002C8008901831603138501033086008030870077
:1002D8008801831203138501860188018701703024
:1002E800831603138F040F14811315149514161411
:1002F80096148B178B150B100A128A11A5210A1256
:100308008A11FA01F90108000B1C8B298C299D29F7
:100318008312031306189129922997290130F000B6
:100328007008FA079D2986189A299B299D2901306A
:10033800FA020B1072088A00710E8300FE0E7E0E00
:100348000900831603131812181583160317871547
:10035800CF308316031399009A0183120313981759
:10036800181318168316031398160800F600F501DB
:10037800761CBF29C029C4297308F4007408F5073E
:100388000310F30D0310F60C7608031DCC29CD29B4
:10039800BC2975080800F30083160313981CD52997
:1003A800D629D029730883120313990008008312F1
:0603B80003131A080800FF
:04400E00D420FF3F7C
:00000001FF
