:020000040000FA
:060000000A128A110C280F
:10000800FE00030EF1000A08F2000A128A11CD2A36
:100018000A128A110F28F701F801F901FA0183126F
:100028000313B701B801B901BA01BB01BC018301CF
:100038000A128A111F280A128A1187220A128A11A3
:100048007A0883120313AB002B08B6007908AB00BB
:100058002B08B5006430A2000030A3007A08AB007A
:10006800AC012B08A4002C08A5000A128A11F32160
:100078000A128A11831203132208AD002D08B40056
:100088000A30A2000030A3003408AB00AC012B08F2
:10009800F3002C08F4009C30F500FF30F6000A123B
:1000A8008A115C220A128A117A08730783120313D1
:1000B800A40074080318740AA5000A128A11F3210F
:1000C8000A128A11831203132208AD002D08B30007
:1000D8009C30AB002B08F30034080A128A11FF2267
:1000E8000A128A1183120313AC00F630AD002D08F2
:1000F800F30033080A128A11FF220A128A118312A6
:1001080003132C077A07AE002E08B2006430A20051
:100118000030A3000508AB00AC012B08A4002C0894
:10012800A5000A128A11F3210A128A1183120313F5
:100138002208AD002D08B1000A30A2000030A3004B
:100148003108AB00AC012B08F3002C08F4009C30FC
:10015800F500FF30F6000A128A115C220A128A1191
:100168008312031305087307A40074080318740A9C
:10017800A5000A128A11F3210A128A1183120313A5
:100188002208AD002D08B0009C30AB002B08F3000E
:1001980031080A128A11FF220A128A1183120313E4
:1001A800AC00F630AD002D08F30030080A128A11B1
:1001B800FF220A128A11831203132C070507AE00C7
:1001C8002E08AF003030AB002B08B4073030AB003E
:1001D8002B08B3073030AB002B08B2073030AB0028
:1001E8002B08B1073030AB002B08B0073030AB001C
:1001F8002B08AF0736087A06031D032904290A29A4
:1002080035087906031909290A295E291C300A12BA
:100218008A11AE220A128A1101300A128A11AE22FC
:100228000A128A114A300A128A11AE220A128A1157
:100238008312031334080A128A1114230A128A112A
:100248008312031333080A128A1114230A128A111B
:100258008312031332080A128A1114230A128A110C
:1002680060300A128A11AE220A128A1134300A1238
:100278008A11AE220A128A118312031331080A1254
:100288008A1114230A128A118312031330080A12DE
:100298008A1114230A128A11831203132F080A12CF
:1002A8008A1114230A128A1160300A128A11AE22A6
:1002B8000A128A11831203138C1E63296429812967
:1002C8000A128A1120230A128A1183120313AB001F
:1002D8002B08F8002B307806031D73297429792917
:1002E8000130AB002B08F90781292D307806031D52
:1002F8007E297F2981290130F9027A088800790846
:100308008500F80124280A128A110C2801308A0075
:100318000408840A820700342D3420347034613490
:10032800723461342034643465346334723465342F
:100338006D3465346E34743461347234203450341E
:100348004F345234543441340A340D3400342B348D
:10035800203470346134723461342034613475343B
:100368006D3465346E3474346134723420345034EE
:100378004F345234543441340A340D3400340A347E
:100388000D340A340D34563461346C346F3472349D
:100398002034643465346C34203450344F3452344F
:1003A800543441343A340A3400340A340D340A34AB
:1003B8000D34563461346C346F3472342034643400
:1003C80065346C34203450344F345234543444340B
:1003D8003A340A34003456340A340D340034831263
:1003E8000313A801A31FF929FA29012AA209A309BD
:1003F800A20A0319A30AA801A80AA51F042A052A04
:100408000E2AA409A509A40A0319A50A0130A60001
:100418002608A806A901AA01220823040319152AF7
:10042800162A4D2AA701A70A242A01300310A20D73
:10043800A30DFF3E031D1A2A0130A6002608A707B0
:10044800A31F272A282A192A01300310A90DAA0D4B
:10045800FF3E031D292A23082502031D352A2208E9
:100468002402031C382A392A402A2208A402230815
:10047800031CA503A502291401300310A30CA20C28
:10048800FF3E031D412A0130A702031D4C2A4D2AB5
:10049800282A28080319512A522A572AA909AA09D9
:1004A800A90A0319AA0A2A08A3002908A200080011
:1004B80083120313A001A101731C632A642A6C2A06
:1004C800750883120313A0070318A10A7608A10769
:1004D80001300310F50DF60DFF3E031D6D2A0130A6
:1004E8000310F40CF30CFF3E031D742A7308740404
:1004F800031D7F2A802A602A831203132108F4002F
:100508002008F30008008316031788018901831661
:100518000313850103308600803087008801831229
:100528000313850186018801870170308316031340
:100538008F040F14811315149514161496148B1721
:100548008B150B100A128A11EA220A128A11FA0173
:10055800F9010800F500C02A750884000A128A11FA
:100568008A210A128A110A128A1114230A128A117C
:100578000130F4007408F507750884000A128A111E
:100588008A210A128A11003A031DCB2ACC2AB02AE2
:1005980008000B1CD02AD12AE22A8312031306185A
:1005A800D62AD72ADC2A0130F0007008FA07E22A96
:1005B8008618DF2AE02AE22A0130FA020B107208B4
:1005C8008A00710E8300FE0E7E0E09008316031347
:1005D80018121815831603178715CF3083160313BF
:1005E80099009A0183120313981718131816831683
:1005F800031398160800F600F501761C042B052B4A
:10060800092B7308F4007408F5070310F30D0310A1
:10061800F60C7608031D112B122B012B7508080008
:10062800F30083160313981C1A2B1B2B152B730826
:100638008312031399000800831203131A08080091
:04400E00D420FF3F7C
:00000001FF
