:020000040000FA
:060000000A128A110C280F
:10000800FE00030EF1000A08F2000A128A11B6284F
:100018000A128A110F28F801F901FA0183010A125C
:100028008A115229F5008128831203139F121F1287
:100038009F111F11B528831203139F121F129F11BE
:100048001F15B528831203139F121F129F151F1126
:10005800B528831203139F121F129F151F15B52869
:10006800831203139F121F169F111F11B5288312A5
:1000780003139F121F169F111F15B5288312031310
:100088009F121F169F151F11B528831203139F1265
:100098001F169F151F15B528831203139F161F12CD
:1000A8009F111F11B528831203139F161F129F114A
:1000B8001F15B528831203139F161F129F151F11B2
:1000C800B528831203139F161F129F151F15B528F5
:1000D800831203139F161F169F111F11B528831231
:1000E80003139F161F169F111F15B528831203139C
:1000F8009F121F129F111F11B5287508F300F401F4
:100108007408003A031989287A287308003A0319F1
:100118001828013A03191F28033A03192628013A17
:1001280003192D28073A03193428013A03193B28E3
:10013800033A03194228013A031949280F3A0319C7
:100148005028013A03195728033A03195E28013A3F
:1001580003196528073A03196C28013A031973280B
:100168007A280800831203138C1DBB28BC28132986
:100178001412141BC028C128C528941FC428C528D8
:10018800CC281308F0007008FA00141394131416FE
:1001980083160313941AD128D228EF281419D528C6
:1001A800D628EF28831203131308F0007008FA000A
:1001B8008C111416E328831203131308880083167E
:1001C8000313141CE828E928DF28A630F000F00BF8
:1001D800EB2800001029941AF228F3281029141D7E
:1001E800F628F7281029831203131308F000700863
:1001F800FA0083160313141078088312031393006C
:100208001416A630F000F00B07290000831603131C
:1002180014180F2910290A29831203138C11720844
:100228008A00710E8300FE0E7E0E090020308316B0
:10023800031788008901FF3083160313890086019C
:100248008801831203138601880189018316031329
:100258000F178F160F160F1405300A128A11162061
:100268000A128A11831603131F129F128312031393
:100278001F139F17831603139F13831203131F144F
:100288002130F600F60B4629831203139F145030D1
:100298000A128A116C210A128A1108000A128A119C
:1002A8001A210A128A11831203139F185C295D29E7
:1002B80057291E08F7007708F8002130F700F70BD8
:1002C8006329831203139F1457290A128A110C28D1
:1002D800F300730883160313930036308312031355
:1002E8009400803083160313940001309100871521
:1002F80007168B170B17831203138C11831603131E
:040308008C15080048
:04400E00D420FF3F7C
:00000001FF
