:020000040000FA
:060000000A128A110C280F
:10000800FE00030EF1000A08F2000A128A15A92B55
:100018000A128A110F288313BE30FD000C30FE002F
:100028002030FF00A03084000A128A1570230A12BB
:100038008A112030840045300A128A152F230A12AB
:100048008A11F801F901FA0183010A128A112C2890
:100058000A128A1551260A128A11831203139F184D
:100068003628372866281F0CD600560C0F390C3A4C
:10007800031D3F28402849281E08D6005608C400FA
:100088001F08C33928389F005C281F0CD600560C5F
:100098000F390A3A031D512852285C281E0885008A
:1000A8001E08D6005608C3001F08C33930389F0001
:1000B800203083120313D600D60B60280000831269
:1000C80003139F141030C7002730C8004408D60017
:1000D800D7015608C9005708CA000A128A151D27F1
:1000E8000A128A11831203134708D8005808FA0025
:1000F800E830C7000330C8007A08D600D701560890
:10010800F3005708F400F030F500D830F6000A1272
:100118008A153E240A128A118312031344087307AE
:10012800C90074080318740ACA000A128A151D2720
:100138000A128A11831203134708D8005808F900D5
:100148006430C7000030C8007A08D600D7015608C6
:10015800F3005708F400F030F500D830F6000A1222
:100168008A153E240A128A1183120313440873075E
:10017800D80074080318740AD9007908DA00DB017A
:100188005A08F3005B08F4001830F500FC30F6005C
:100198000A128A153E240A128A117308831203135D
:1001A8005807C90074080318740A5907CA000A12C4
:1001B8008A151D270A128A11831203134708DC00C7
:1001C8005C08BF000A30C7000030C8007A08D600B3
:1001D800D7015608F3005708F400F030F500D8307E
:1001E800F6000A128A153E240A128A118312031392
:1001F80044087307D80074080318740AD9007908EA
:10020800DA00DB015A08F3005B08F4001830F50047
:10021800FC30F6000A128A153E240A128A11730865
:10022800831203135807DC0074080318740A59076B
:10023800DD003F08DE00DF015E08F3005F08F40020
:100248009C30F500FF30F6000A128A153E240A1287
:100258008A117308831203135C07C9007408031812
:10026800740A5D07CA000A128A151D270A128A1124
:10027800831203134708E0006008BE00F030D60080
:100288005608F3007A080A128A157F230A128A117F
:1002980083120313D7001830D8005808F3007908E0
:1002A8000A128A157F230A128A1183120313D900AE
:1002B8009C30DA005A08F3003F080A128A157F2397
:1002C8000A128A1183120313DB00F630DC005C0883
:1002D800F3003E080A128A157F230A128A11831234
:1002E80003135B07590757074407DD005D08BD0086
:1002F8001030C7002730C8004308D600D701560879
:10030800C9005708CA000A128A151D270A128A113D
:10031800831203134708D8005808F800E830C700CC
:100328000330C8007808D600D7015608F3005708EC
:10033800F400F030F500D830F6000A128A153E2491
:100348000A128A118312031343087307C900740839
:100358000318740ACA000A128A151D270A128A117C
:10036800831203134708D8005808BC006430C7003C
:100378000030C8007808D600D7015608F30057089F
:10038800F400F030F500D830F6000A128A153E2441
:100398000A128A118312031343087307D8007408DA
:1003A8000318740AD9003C08DA00DB015A08F30084
:1003B8005B08F4001830F500FC30F6000A128A15C4
:1003C8003E240A128A117308831203135807C900BE
:1003D80074080318740A5907CA000A128A151D27D7
:1003E8000A128A11831203134708DC005C08BB0059
:1003F8000A30C7000030C8007808D600D701560870
:10040800F3005708F400F030F500D830F6000A126F
:100418008A153E240A128A118312031343087307AC
:10042800D80074080318740AD9003C08DA00DB0104
:100438005A08F3005B08F4001830F500FC30F600A9
:100448000A128A153E240A128A11730883120313AA
:100458005807DC0074080318740A5907DD003B08C4
:10046800DE00DF015E08F3005F08F4009C30F50051
:10047800FF30F6000A128A153E240A128A11730800
:10048800831203135C07C90074080318740A5D0714
:10049800CA000A128A151D270A128A118312031329
:1004A8004708E0006008BA00F030D6005608F300AC
:1004B80078080A128A157F230A128A1183120313F5
:1004C800D7001830D8005808F3003C080A128A15DB
:1004D8007F230A128A1183120313D9009C30DA0091
:1004E8005A08F3003B080A128A157F230A128A1158
:1004F80083120313DB00F630DC005C08F3003A08D3
:100508000A128A157F230A128A11831203135B07C2
:10051800590757074307DD005D08B9000030C700D9
:10052800C8000A128A15ED250A128A1183120313CC
:100538004808B3004708B2000130C7000030C800BF
:100548000A128A15ED250A128A1183120313480824
:10055800B1004708B0000230C7000030C8000A12D6
:100568008A15ED250A128A11831203134808AD0073
:100578004708AC000430C7000030C8000A128A15CA
:10058800ED250A128A11831203134808AF004708A1
:10059800AE000530C7000030C8000A128A15ED25E4
:1005A8000A128A11831203134808A9004708A800F1
:1005B8000630C7000030C8000A128A15ED250A1255
:1005C8008A11831203134808AB004708AA000F30AA
:1005D8003205D60000303305D700320E0F39F3004C
:1005E800330EF039F304330E0F39F400F030F41DF4
:1005F8000030F4040A30F5000030F6000A128A15BB
:100608003E240A128A118312031356087307B20094
:1006180057080318570A7407B3000F303005D6007F
:1006280000303105D700300E0F39F300310EF039A4
:10063800F304310E0F39F400F030F41D0030F404E7
:100648000A30F5000030F6000A128A153E240A1214
:100658008A118312031356087307B000570803184A
:10066800570A7407B1000F302C05D60000302D054D
:10067800D7002C0E0F39F3002D0EF039F3042D0E90
:100688000F39F400F030F41D0030F4040A30F5009E
:100698000030F6000A128A153E240A128A118312C3
:1006A800031356087307AC0057080318570A740752
:1006B800AD000F302E05D60000302F05D7002E0EC6
:1006C8000F39F3002F0EF039F3042F0E0F39F40011
:1006D800F030F41D0030F4040A30F5000030F60064
:1006E8000A128A153E240A128A1183120313560825
:1006F8007307AE0057080318570A7407AF000F3086
:100708002805D60000302905D700280E0F39F30038
:10071800290EF039F304290E0F39F400F030F41DD6
:100728000030F4040A30F5000030F6000A128A1589
:100738003E240A128A118312031356087307A8006D
:1007480057080318570A7407A9000F302A05D6005E
:1007580000302B05D7002A0E0F39F3002B0EF03985
:10076800F3042B0E0F39F400F030F41D0030F404BC
:100778000A30F5000030F6000A128A153E240A12E3
:100788008A118312031356087307AA00570803181F
:10079800570A7407AB000A30F3000030F40033083E
:1007A800F6003208F5000A128A1592250A128A11F3
:1007B8007308303E83120313D600560883160313BA
:1007C800BC000A3083120313C7000030C800330886
:1007D800CA003208C9000A128A151D270A128A118E
:1007E800831203134708303ED600560883160313B6
:1007F800BB000A30F3000030F40083120313310801
:10080800F6003008F5000A128A1592250A128A1194
:100818007308303E83120313D60056088316031359
:10082800B9000A3083120313C7000030C80031082A
:10083800CA003008C9000A128A151D270A128A112F
:10084800831203134708303ED60056088316031355
:10085800B8000A30F3000030F400831203132D08A7
:10086800F6002C08F5000A128A1592250A128A1138
:100878007308303E83120313D600560883160313F9
:10088800B6000A3083120313C7000030C8002D08D1
:10089800CA002C08C9000A128A151D270A128A11D3
:1008A800831203134708303ED600560883160313F5
:1008B800B5000A30F3000030F400831203132B084C
:1008C800F6002A08F5000A128A1592250A128A11DA
:1008D8007308303E83120313D60056088316031399
:1008E800AE000A3083120313C7000030C8002B087B
:1008F800CA002A08C9000A128A151D270A128A1175
:10090800831203134708303ED60056088316031394
:10091800AD000A30F3000030F400831203132908F5
:10092800F6002808F5000A128A1592250A128A117B
:100938007308303E83120313D60056088316031338
:10094800A9000A3083120313C7000030C800290821
:10095800CA002808C9000A128A151D270A128A1116
:10096800831203134708303ED60056088316031334
:10097800A8000A30F3000030F400831203132F0894
:10098800F6002E08F5000A128A1592250A128A1115
:100998007308303E83120313D600560883160313D8
:1009A800A6000A3083120313C7000030C8002F08BE
:1009B800CA002E08C9000A128A151D270A128A11B0
:1009C800831203134708303ED600560883160313D4
:1009D800A5007A0883120313D600D7015608F3003E
:1009E8005708F4001030F5002730F6000A128A156F
:1009F8003E240A128A11730883120313D80074085C
:100A0800D9007908DA00DB015A08F3005B08F40022
:100A1800E830F5000330F6000A128A153E240A125F
:100A28008A117308831203135807DC00740803182B
:100A3800740A5907DD003F08DE00DF015E08F30095
:100A48005F08F4006430F5000030F6000A128A15D9
:100A58003E240A128A117308831203135C07E0000C
:100A680074080318740A5D07E1003E08E200E30118
:100A78006208F3006308F4000A30F5000030F6005D
:100A88000A128A153E240A128A1173088312031364
:100A98006007E40074080318740A6107E5003D085C
:100AA8006407A4000030031801306507A500A601FB
:100AB800A51BA6032608A7007808D600D701560864
:100AC800F3005708F4001030F5002730F6000A123A
:100AD8008A153E240A128A11730883120313D80058
:100AE8007408D9003C08DA00DB015A08F3005B08F7
:100AF800F400E830F5000330F6000A128A153E24A7
:100B08000A128A117308831203135807DC00740849
:100B18000318740A5907DD003B08DE00DF015E0890
:100B2800F3005F08F4006430F5000030F6000A12A4
:100B38008A153E240A128A117308831203135C076C
:100B4800E00074080318740A5D07E1003A08E2003F
:100B5800E3016208F3006308F4000A30F50000308E
:100B6800F6000A128A153E240A128A1173088312A3
:100B780003136007E40074080318740A6107E500AA
:100B880039086407A0000030031801306507A10088
:100B9800A201A11BA2032208A3004008031DD52D12
:100BA800D62D172EF50100300A128A15D5230A1200
:100BB8008A110130F5008030F6000A128A1569247E
:100BC8000A128A11790883120313D6005608C50041
:100BD8003F08D7005708C6003E08D8005808C70085
:100BE8003D08D9005908C8007A080A128A15002554
:100BF8000A128A11831203133C08D6005608C5004E
:100C08003B08D7005708C6003A08D8005808C7005C
:100C18003908D9005908C80078080A128A154825E1
:100C28000A128A11582E4003031D1B2E1C2E3D2E1E
:100C3800F50100300A128A15D5230A128A11B0303C
:100C4800F5000030F6000A128A1569240A128A1182
:100C5800F50102300A128A15D5230A128A11A0302A
:100C6800F5000030F6000A128A1569240A128A1162
:100C7800582E02304006031D422E432E582E1130A6
:100C8800F5008030F6000A128A1569240A128A11C2
:100C98001130F5008030F6000A128A1569240A120C
:100CA8008A1183120313C001831203132308031D3F
:100CB8006A2E2208031D6A2E2108031D6A2E65303C
:100CC8002002031D672E03186A2E6B2E852E8312B1
:100CD80003132708031D7D2E2608031D7D2E2508D6
:100CE800031D7D2E65302402031D7A2E03187D2EE8
:100CF8007E2E852EBB30831203139500171697128C
:100D0800E42E831203132308031D992E2208031DC2
:100D1800992E23302102031D952E28302002031D11
:100D2800952E031C982E992EB42E83120313270890
:100D3800031DAD2E2608031DAD2E23302502031DED
:100D4800A92E28302402031DA92E031CAC2EAD2E7B
:100D5800B42EBB3083120313950017169712E42E96
:100D68008312031323082702031DC42E2208260218
:100D7800031DC42E21082502031DC42E20082402A9
:100D88000318C72EC82ECD2E9D309500171697161E
:100D9800E42E27082302031DDB2E26082202031D4A
:100DA800DB2E25082102031DDB2E24082002031850
:100DB800DE2EDF2EE42EDA30950017169716E42E75
:100DC8008C1EE72EE82E31280A128A152B230A12C8
:100DD8008A1183120313D6005608B6006630360609
:100DE800031DF72EF82E222F7A08303E0A128A1594
:100DF80053230A128A117908303E0A128A1553239E
:100E08000A128A11831203133F08303E0A128A1508
:100E180053230A128A11831203133E08303E0A1222
:100E28008A1553230A128A11831203133D08303E90
:100E38000A128A1553230A128A11562F643036066D
:100E4800031D272F282F562F7808303E0A128A159F
:100E580053230A128A11831203133C08303E0A12E4
:100E68008A1553230A128A11831203133B08303E52
:100E78000A128A1553230A128A11831203133A0895
:100E8800303E0A128A1553230A128A118312031359
:100E98003908303E0A128A1553230A128A1183121E
:100EA8000313B601831203138C1231280A128A1114
:100EB8000C28F500C82F831203139F121F129F11CD
:100EC8001F11FC2F831203139F121F129F111F154E
:100ED800FC2F831203139F121F129F151F11FC2F43
:100EE800831203139F121F129F151F15FC2F8312C5
:100EF80003139F121F169F111F11FC2F8312031338
:100F08009F121F169F111F15FC2F831203139F1288
:100F18001F169F151F11FC2F831203139F121F16F4
:100F28009F151F15FC2F831203139F161F129F1165
:100F38001F11FC2F831203139F161F129F111F15D9
:100F4800FC2F831203139F161F129F151F11FC2FCE
:100F5800831203139F161F129F151F15FC2F831250
:100F680003139F161F169F111F11FC2F83120313C3
:100F78009F161F169F111F15FC2F831203139F1214
:100F88001F129F111F11FC2F7508F300F40174083C
:100F9800003A0319D02FC12F7308003A03195F2FA5
:100FA800013A0319662F033A03196D2F013A031901
:100FB800742F073A03197B2F013A0319822F033A3A
:100FC8000319892F013A0319902F0F3A0319972F04
:100FD800013A03199E2F033A0319A52F013A031961
:100FE800AC2F073A0319B32F013A0319BA2FC12FAF
:020FF8000800EF
:10100000FF1B0A2883137F1883170008840A03191B
:10101000FF0A080008308A000408840A82070034A6
:1010200046346F3474346F343134203420342034F7
:101030002034203446346F3474346F343234003406
:101040002034203420342034203420342034203400
:08105000203420342034003468
:10165600831203131A08080064008001840A040632
:10166600031900340406302B0A128A155F230A1266
:101676008A1583160313111408000A128A155F23AC
:101686000A128A1583160313111508000A128A1501
:101696005F230A128A157308831203139300080046
:1016A600F30083160313981C592B5A2B542B7308DB
:1016B6008312031399000800831603131419642B6D
:1016C600652B5F2B11081F39031D6A2B6B2B5F2BB4
:1016D60008007E088A007F0882000A128A156C2399
:1016E6000A128A158000840A04087D06031900344C
:1016F600FF0A0319FE0A702BF600F501761C842BEF
:10170600852B892B7308F4007408F5070310F30D75
:101716000310F60C7608031D912B922B812B75086E
:101726000800831603131812181583160317871556
:10173600CF308316031399009A0183120313981767
:101746001813181683160313981608000B1CAC2BD7
:10175600AD2BB72B831203130619B22BB32BB72B62
:101766000130F0007008C0070B1072088A00710E75
:101776008300FE0E7E0E0900831603131F129F12AE
:10178600831203131F139F17831603139F138312CA
:1017960003131F142130F300F30BCF2B8312031313
:1017A6009F140800F60076080319DA2BDB2BE32BCF
:1017B6007508C03E0A128A15EB230A128A15EA2B0F
:1017C6007508803E0A128A15EB230A128A1508004C
:1017D600F400740883120313880009108910063078
:1017E600F300F30BF42B00008312031309150630E4
:1017F600F300F30BFC2B00008312031309110800FE
:10180600F4004230F300F30B062C00007408831238
:1018160003138800891009140630F300F30B112C0A
:1018260000008312031309150630F300F30B192C7D
:101836000000831203130911080044344134543460
:1018460045343A34203420342F34203420342F3495
:1018560032343034203420340034543449344D3456
:1018660045343A34203420343A34203420343A345F
:1018760020342034003483120313C501C601731CBF
:10188600452C462C4E2C750883120313C5070318E6
:10189600C60A7608C60701300310F50DF60DFF3EA1
:1018A600031D4F2C01300310F40CF30CFF3E031DF7
:1018B600562C73087404031D612C622C422C83126F
:1018C60003134608F4004508F3000800852C42304F
:1018D600F700F70B6C2C0000760883120313FF0049
:1018E600750884000A128A1500200A128A150A123F
:1018F6008A1503240A128A150130F5070318F60A19
:101906000030F607760883120313FF00750884007B
:101916000A128A1500200A128A15003A031D942C11
:10192600952C6A2C08000A128A155F230A128A155A
:101936008316031391150A128A155F230A128A1554
:10194600831203131308F500F6017508C50076081F
:10195600C6000A128A155F230A128A1573037404D5
:10196600031DB62CB72CBB2C831603139112BE2C69
:101976008316031391161116831203134608F400F7
:101986004508F300080028308312031394008316D9
:1019960003139101831203135208F4005308F50050
:1019A6005408F6005508F70002300310F40DF50D43
:1019B600F60DF70DFF3E031DD82C7708C8007608F4
:1019C600C7007508C6007408C5000030CC007A3020
:1019D600CB001230CA000030C9000A128A15B5269B
:1019E6000A128A15831203134508FF3E8316031352
:1019F6009300940187150716080083120313C90084
:101A06003030F7007708C9073030F7007708C50788
:101A16003030F7007708C6073030F7007708C70779
:101A26003030F7007708C807F501F50A02300A12C8
:101A36008A15D5230A128A158312031349080A1236
:101A46008A1503240A128A158312031345080A12FB
:101A56008A1503240A128A158312031346080A12EA
:101A66008A1503240A128A158312031347080A12D9
:101A76008A1503240A128A158312031348080A12C8
:101A86008A1503240A128A15080083120313C90053
:101A96003030F7007708C9073030F7007708C507F8
:101AA6003030F7007708C6073030F7007708C707E9
:101AB6003030F7007708C8070930F7007708F500D7
:101AC60002300A128A15D5230A128A1583120313C5
:101AD60049080A128A1503240A128A158312031367
:101AE60045080A128A1503240A128A15831203135B
:101AF60046080A128A1503240A128A15831203134A
:101B060047080A128A1503240A128A158312031338
:101B160048080A128A1503240A128A150800831235
:101B26000313C601F61F982D992DA02DF509F60968
:101B3600F50A0319F60AC601C60AF41FA32DA42D39
:101B4600A92DF309F409F30A0319F40A73087404B6
:101B56000319AE2DAF2DDE2DC501C50ABD2D0130F1
:101B66000310F30DF40DFF3E031DB32D0130F700F6
:101B76007708C507F41FC02DC12DB22D7408760253
:101B8600031DC72D73087502031CCA2DCB2DD12D3D
:101B96007308F5027408031CF603F60201300310FD
:101BA600F40CF30CFF3E031DD22D0130C502031DBC
:101BB600DD2DDE2DC12D46080319E22DE32DE82D7E
:101BC600F509F609F50A0319F60A7608F400750808
:101BD600F30008000A128A1537230A128A15D03034
:101BE600F3000030F4000A128A1549230A128A15F6
:101BF600831203134808F4004708F3000A128A15F3
:101C060049230A128A150A128A1540230A128A15CE
:101C1600033083120313CB000830CA007630C900A4
:101C2600C90B132ECA0B132ECB0B132E00000A1250
:101C36008A1537230A128A15D130F3000030F400D2
:101C46000A128A1549230A128A150030F300F40095
:101C56000A128A1596240A128A1574088312031327
:101C6600CD007308CC000A128A1540230A128A1581
:101C7600033083120313CB000830CA007630C90044
:101C8600C90B432ECA0B432ECB0B432E00008312E7
:101C960003134D08C8004C08C70008008316031735
:101CA60088011430890083160313850101308900E9
:101CB6000730860080308700880183120313850170
:101CC6008901860187018801831603138714FA3078
:101CD60092003F308312031397051708F0390C382A
:101CE60097007D309500171297128C1003309204DE
:101CF60012158C1C7F2E802E7C2E8C1083160313BF
:101D0600871070308F040F148113151516158B1755
:101D16008B150B1083120313C0010C300A128A11A3
:101D26005D270A128A150A128A15BF230A128A1516
:101D36000A128A1594230A128A150A128A15862708
:101D46000A128A15003083120313D5000130D4001D
:101D56008630D300A030D2000A128A15C6240A1291
:101D66008A150800003083120313D0000030CF001C
:101D76000030CE000030CD00480847044604450434
:101D86000319C62EC72E142FD101D10AD72E013022
:101D9600F3000310C50DC60DC70DC80DF30BCC2EF1
:101DA6000130F3007308D107C81FDA2EDB2ECA2EC6
:101DB6000130F3000310CD0DCE0DCF0DD00DF30B7A
:101DC600DD2E48084C02031DF22E47084B02031D68
:101DD600F22E46084A02031DF22E45084902031C4C
:101DE600F52EF62E052F4508C9024608031C460F98
:101DF600CA024708031C470FCB024808031C480FBA
:101E0600CC024D1401300310C80CC70CC60CC50C0F
:101E1600FF3E031D062F0130D102031D132F142F81
:101E2600DB2E5008C8004F08C7004E08C6004D08F4
:101E3600C500080083120313CC01C81F232F242FCB
:101E46002B2FC709C809C70A0319C80ACC01CC0A2F
:101E5600CA1F2E2F2F2F382FC909CA09C90A0319DD
:101E6600CA0A0130F7007708CC06CD01CE01470833
:101E7600480403193F2F402F772FCB01CB0A4E2F53
:101E860001300310C70DC80DFF3E031D442F01305E
:101E9600F7007708CB07C81F512F522F432F013069
:101EA6000310CD0DCE0DFF3E031D532F48084A02E9
:101EB600031D5F2F47084902031C622F632F6A2FF9
:101EC6004708C9024808031CCA03CA024D14013058
:101ED6000310C80CC70CFF3E031D6B2F0130CB024D
:101EE600031D762F772F522F4C0803197B2F7C2F3B
:101EF600812FCD09CE09CD0A0319CE0A4E08C80096
:101F06004D08C700080083120313880183160313C4
:101F16008801091089100911831203130910891009
:101F260009112A30F6008D30F500F50B982FF60BC7
:101F3600982F9D2F30300A128A15EB230A128A1524
:101F46000D30F600FB30F500F50BA72FF60BA72F8B
:101F5600AC2F30300A128A15EB230A128A1542304A
:101F6600F500F50BB42F000030300A128A15EB236A
:101F76000A128A154230F500F50BBF2F00003830E3
:101F86000A128A15EB230A128A154230F500F50B60
:101F9600CA2F000008300A128A15EB230A128A1586
:101FA6004230F500F50BD52F000001300A128A15D4
:101FB600EB230A128A154230F500F50BE02F0000DC
:101FC60004300A128A15EB230A128A154230F500EC
:101FD600F50BEB2F00004230F500F50BF02F00005B
:101FE60006300A128A15EB230A128A150C300A12D9
:0A1FF6008A15EB230A128A15080071
:04400E00D420FF3F7C
:00000001FF
