:020000040000FA
:060000000A128A11F32F21
:10000A000A128A1568240A128A1183120313130822
:10001A0008008312031359086506031D15281628BC
:10002A00222858086406031D1B281C282228630856
:10003A00050603192128222876281F300A128A1554
:10004A00C8240A128A1101300A128A15C8240A120F
:10005A008A113D300A128A15C8240A128A1183129B
:10006A0003136108F5007508F1006008F6007608C8
:10007A00F20062080A128A15A5250A128A11573057
:10008A000A128A15C8240A128A11831203135E08F7
:10009A00F5007508F1005D08F6007608F2005F08C1
:1000AA000A128A15A5250A128A1171300A128A15AE
:1000BA00C8240A128A11831203135B08F500750813
:1000CA00F1005A08F6007608F2005C080A128A154E
:1000DA00A5250A128A118A300A128A15C8240A1218
:1000EA008A110800F800780803197C287D289128CD
:1000FA00F31F8028812891287009FA007109FB00F2
:10010A007209FC007309FD00FA0A0319FB0A0319B4
:10011A00FC0A0319FD0A99287308FD007208FC00FD
:10012A007108FB007008FA00730872047104700405
:10013A00031DA028A128AA280030F3000030F200ED
:10014A000030F1000030F00030299630F4007408D5
:10015A00F900BC280130F4007408F90701300310D3
:10016A00FD0CFC0CFB0CFA0CFF3E031DB428FE3000
:10017A007D05031DC128C228AF28DE280130F400FE
:10018A007408F9070130FA07003003180130FB0739
:10019A00003003180130FC07003003180130FD0756
:1001AA0001300310FD0CFC0CFB0CFA0CFF3E031D86
:1001BA00D628FF307D05031DE328E428C328F0284C
:1001CA000130F9020130F4000310FA0DFB0DFC0DA9
:1001DA00FD0DF40BE928FC1BF328F428FA28023059
:1001EA0079020318F928FA28E5287918FD28FE2843
:1001FA000629FF30FA05FF30FB057F30FC05FF308A
:10020A00FD050310F90C7908F400F501F601F70170
:10021A0018300310F40DF50DF60DF70DFF3E031D12
:10022A000E297408FA047508FB047608FC0477089A
:10023A00FD0478080319222923292829F31F2629CE
:10024A0027292829FD177D08F3007C08F2007B087E
:10025A00F1007A08F00008000A128A15E7240A1247
:10026A008A11831203136508C7004708D900640876
:10027A00C7004708D8000A128A15D1250A128A111E
:10028A00831203136508C700C801C901CA014A08D5
:10029A00F3004908F2004808F1004708F00001306D
:1002AA000A128A1177200A128A1173088312031319
:1002BA00A7007208A6007108A5007008A4003F30C4
:1002CA00A300FA30A200E130A1004830A0000A12CF
:1002DA008A1192240A128A11831203132308BD0079
:1002EA002208BC002108BB002008BA000A128A159D
:1002FA00EA260A128A11831203133B08D5003A0828
:10030A00D4006408C700C801C901CA014A08F30039
:10031A004908F2004808F1004708F00001300A12C3
:10032A008A1177200A128A11730883120313A7000D
:10033A007208A6007108A5007008A4003F30A30047
:10034A00FA30A200E130A1004830A0000A128A1156
:10035A0092240A128A11831203132308BD00220869
:10036A00BC002108BB002008BA000A128A15EA2636
:10037A000A128A11831203133B08D3003A08D200E7
:10038A000508C700C801C901CA014A08F30049089B
:10039A00F2004808F1004708F00001300A128A11F9
:1003AA0077200A128A11730883120313A7007208AE
:1003BA00A6007108A5007008A4003F30A300FA3017
:1003CA00A200E130A1004830A0000A128A1192244A
:1003DA000A128A11831203132308BD002208BC00E3
:1003EA002108BB002008BA000A128A15EA260A1256
:1003FA008A11831203133B08D1003A08D00055082A
:10040A00A5005408A4000A128A15AE240A128A11F9
:10041A0083120313C7004708E2005308A5005208D5
:10042A00A4000A128A15AE240A128A11831203132F
:10043A00C7004708DF005108A5005008A4000A12A7
:10044A008A15AE240A128A1183120313C7004708B9
:10045A00DC005508A5005408A4000A128A1557257D
:10046A000A128A1183120313C7004708E1005308CE
:10047A00A5005208A4000A128A1557250A128A11E1
:10048A0083120313C7004708DE005108A50050086D
:10049A00A4000A128A1557250A128A118312031315
:1004AA00C7004708DB005508F8005408F7000A128D
:1004BA008A157E250A128A1183120313C700470878
:1004CA00E0005308F8005208F7000A128A157E2540
:1004DA000A128A1183120313C7004708DD00510864
:1004EA00F8005008F7000A128A157E250A128A11A6
:1004FA0083120313C7004708DA000A128A110E2072
:10050A000A128A11831203130508C7004708E30079
:10051A000A128A155E240A128A1183120313C7006B
:10052A004708D7000A128A1566270A128A112B3041
:10053A00831203135706031DA32AA42AA92A0130EA
:10054A00C7004708850736292D305706031DAE2AEE
:10055A00AF2A36290130850236290A128A11002863
:10056A008312031327088039A8002808B100270836
:10057A00A8002807A9002908B800A61FC52AC62A64
:10058A00C72A381438080319CB2ACC2ADC2A380A95
:10059A00031DD02AD12AD92A0030A7000030A6008C
:1005AA000030A5000030A400A617A701E42A0030F5
:1005BA00A7000030A6000030A5000030A4002308E0
:1005CA008039A8002808B1062308A8002807A9002E
:1005DA002908B900A21FF22AF32AF42A3914390881
:1005EA000319F82AF92A092B390A031DFD2AFE2ABA
:1005FA00062B0030A3000030A2000030A10000301A
:10060A00A000A217A301112B0030A3000030A20002
:10061A000030A1000030A000230822042104200495
:10062A00031D182B192B322B0030A7000030A6000F
:10063A000030A5000030A4008030A6047F30A70453
:10064A003108A8002808A7042708A3002608A20042
:10065A002508A1002408A000912C3808031D362B78
:10066A00372B402B0030A3000030A2000030A1003D
:10067A000030A000912C3808A800A9012908AB0075
:10068A0039082802AA00031CAB032A087F3EB200DD
:10069A002B080318013E003EB3002708B0002608C5
:1006AA00AF002508AE002408AD000030A7000030D6
:1006BA00A6000030A5000030A4000030B7000030CA
:1006CA00B6000030B5000030B400B901B62B3908C5
:1006DA000319702B712B912B0130A8000310AD0D5B
:1006EA00AE0DAF0DB00DA80B732B0130A80003108F
:1006FA00A40DA50DA60DA70DA80B7C2BB71F862B45
:10070A00872B882B24140130A8000310B40DB50DD3
:10071A00B60DB70DA80B8A2B23083002031D9F2B99
:10072A0022082F02031D9F2B21082E02031D9F2B37
:10073A0020082D02031CA22BA32BB22B371720084B
:10074A00AD022108031C210FAE022208031C220F4E
:10075A00AF022308031C230FB0020130A8002808A7
:10076A00B9071A303902031CBB2BBC2B6C2B30087F
:10077A002F042E042D040319C32BC42BE32B34148A
:10078A00E32B0130A8000310A40DA50DA60DA70D9B
:10079A00A80BC82BB71FD22BD32BD42B2414013070
:1007AA00A8000310B40DB50DB60DB70DA80BD62BC6
:1007BA00FF30B2070318B30AFF30B307A61FE62BB0
:1007CA00E72BC62BB901B71FEB2BEC2B082CFF30FC
:1007DA003405A800FF303505A900FF303605AA0008
:1007EA007F303705AB002B082A0429042804031993
:1007FA00FF2B002C032CB901B90A082C241C062C47
:10080A00072C082C002C390803190C2C0D2C3E2C13
:10081A000130A407003003180130A507003003187F
:10082A000130A607003003180130A707271C1E2C29
:10083A001F2C3E2C2408A8002508A9002608AA0077
:10084A002708AB000130AC002B0DAB0CAA0CA90C8D
:10085A00A80CAC0B292C2B08A7002A08A6002908EB
:10086A00A5002808A4000130B2070318B30A003013
:10087A00B3073308803AFF0080307F02031D472CFC
:10088A00FF303202031C4A2C4B2C592CFF308312A6
:10089A000313B2000030B3000030A7000030A600F6
:1008AA000030A5000030A400831203133308803AF5
:1008BA00FF0080307F02031D642C013032020318CE
:1008CA00672C682C752C83120313B201B301003014
:1008DA00A7000030A6000030A5000030A400B10136
:1008EA00831203133208A8002808B800381C7E2C8B
:1008FA007F2C812CA617852C7F30A8002808A605F6
:10090A003808A8000310280CA9002908A7003108F4
:10091A00A8002808A704292B080083120313230818
:10092A008039A8002808AD002308A8002807A900D4
:10093A002908B300A21FA22CA32CA42C3314330819
:10094A000319A82CA92CB82C330A031DAD2CAE2CE4
:10095A00B62C0030A3000030A2000030A100003005
:10096A00A000A217C02C0030A3000030A200003063
:10097A00A1000030A00027088039A8002808AD0689
:10098A002708A8002807A9002908B200A61FCE2C0C
:10099A00CF2CD02C321432080319D42CD52CE42CA9
:1009AA00320A031DD92CDA2CE22C0030A7000030C1
:1009BA00A6000030A5000030A400A617EC2C0030D9
:1009CA00A7000030A6000030A5000030A4003208BD
:1009DA000319F02CF12CF62C3308031DF52CF62CF8
:1009EA00FF2C0030A3000030A2000030A10000302C
:1009FA00A000F22F2008A8002808F00026080A12F2
:100A0A008A1530250A128A11710883120313B90054
:100A1A007008B8003808A800A901AA01AB012B0880
:100A2A00B1002A08B0002908AF002808AE0039082A
:100A3A00A800A901AA01AB012B08B7002A08B60031
:100A4A002908B5002808B4002108A8002808F000E1
:100A5A0025080A128A1530250A128A11710883128A
:100A6A000313B9007008B8003808A800A901AA0140
:100A7A00AB012808AE07290803110318013E031920
:100A8A00472DAF072A0803110318013E03194E2DFB
:100A9A00B0072B0803110318013E0319552DB1079E
:100AAA003908A800A901AA01AB012808B407290836
:100ABA0003110318013E0319632DB5072A08031110
:100ACA000318013E03196A2DB6072B0803110318F0
:100ADA00013E0319712DB7072208A8002808F00063
:100AEA0024080A128A1530250A128A1171088312FB
:100AFA000313B9007008B8003808A800A901AA01B0
:100B0A00AB012808AE07290803110318013E03198F
:100B1A008F2DAF072A0803110318013E0319962DDA
:100B2A00B0072B0803110318013E03199D2DB107C5
:100B3A003908A800A901AA01AB012808B4072908A5
:100B4A0003110318013E0319AB2DB5072A08031137
:100B5A000318013E0319B22DB6072B080311031817
:100B6A00013E0319B92DB7070830A8000310AE0DCE
:100B7A00AF0DB00DB10DA80BBB2D2108A800280898
:100B8A00F00024080A128A1530250A128A117108FF
:100B9A0083120313B9007008B8003808A80039088E
:100BAA00A900AA01AB012808AE07290803110318F6
:100BBA00013E0319E12DAF072A0803110318013E6C
:100BCA000319E82DB0072B0803110318013E031976
:100BDA00EF2DB1072008A8002808F00025080A12FE
:100BEA008A1530250A128A11710883120313B90073
:100BFA007008B8003808A8003908A900AA01AB0192
:100C0A002808AE07290803110318013E03190E2EFE
:100C1A00AF072A0803110318013E0319152EB0075E
:100C2A002B0803110318013E03191C2EB1070830C3
:100C3A00A8000310AE0DAF0DB00DB10DA80B1E2EFE
:100C4A002008A8002808F00024080A128A1530256E
:100C5A000A128A11710883120313B9007008B800C6
:100C6A003808A8003908A900AA01AB012808AE076C
:100C7A00290803110318013E0319442EAF072A0855
:100C8A0003110318013E03194B2EB0072B08031159
:100C9A000318013E0319522EB1072108A80028089B
:100CAA00F00026080A128A1530250A128A117108DC
:100CBA0083120313B9007008B8003808A80039086D
:100CCA00A900AA01AB012808B407290803110318CF
:100CDA00013E0319712EB5072A0803110318013EB4
:100CEA000319782EB6072B0803110318013E0319BE
:100CFA007F2EB7072208A8002808F00025080A1244
:100D0A008A1530250A128A11710883120313B90051
:100D1A007008B8003808A8003908A900AA01AB0170
:100D2A002808B407290803110318013E03199E2E47
:100D3A00B5072A0803110318013E0319A52EB607A1
:100D4A002B0803110318013E0319AC2EB70722081A
:100D5A00A8002808F00026080A128A1530250A1267
:100D6A008A11710883120313B9007008B800380891
:100D7A00A8003908A900AA01AB0108300310A80D80
:100D8A00A90DAA0DAB0DFF3E031DC32E2808B407FB
:100D9A00290803110318013E0319D42EB5072A089E
:100DAA0003110318013E0319DB2EB6072B080311A2
:100DBA000318013E0319E22EB7072E08A8002F08D0
:100DCA00A9003008AA003108AB0018300310AB0C98
:100DDA00AA0CA90CA80CFF3E031DEB2E2808B40789
:100DEA00290803110318013E0319FC2EB5072A0826
:100DFA0003110318013E0319032FB6072B08031129
:100E0A000318013E03190A2FB7070830A800031078
:100E1A00AE0DAF0DB00DB10DA80B0C2F3308320774
:100E2A00A800A901A90D2808823EB80029080318BC
:100E3A00013EFF3EB9003E2F0130A8000310B40D59
:100E4A00B50DB60DB70DA80B232FB11F2D2F2E2FC1
:100E5A002F2F34140130A8000310AE0DAF0DB00DC2
:100E6A00B10DA80B312FFF30B8070318B90AFF30AC
:100E7A00B907B61F412F422F212FB201B11F462FAA
:100E8A00472F632FFF302E05A800FF302F05A9003A
:100E9A00FF303005AA007F303105AB002B082A0449
:100EAA002904280403195A2F5B2F5E2FB201B20AB4
:100EBA00632F341C612F622F632F5B2F32080319B3
:100ECA00672F682F992F0130B407003003180130BB
:100EDA00B507003003180130B60700300318013097
:100EEA00B707371C792F7A2F992F3408A8003508AD
:100EFA00A9003608AA003708AB000130AC002B0D58
:100F0A00AB0CAA0CA90CA80CAC0B842F2B08B700AD
:100F1A002A08B6002908B5002808B4000130B80725
:100F2A000318B90A0030B9073908803AFF0080303F
:100F3A007F02031DA22FFF303802031CA52FA62F04
:100F4A00B12F7F3083120313B7008030B600003010
:100F5A00B5000030B400E62F831203133908803A33
:100F6A00FF0080307F02031DBC2F013038020318B6
:100F7A00BF2FC02FCC2F003083120313B7000030CD
:100F8A00B6000030B5000030B400AD01E62F831280
:100F9A0003133808A8002808B300FF30B405FF304F
:100FAA00B5057F30B6050030B705331CDD2FDE2FBF
:100FBA00DF2FB6173308A8000310280CA900290848
:100FCA00B7002D08A8002808B7043708A300360878
:100FDA00A2003508A1003408A000080083134B3092
:100FEA00840066300A128A156F240A128A11830154
:100FFA000A128A11312908308A000408840A8207F1
:10100A0000340A340D340A340D3420342D3420349B
:10101A007034613472346134203464346534633436
:10102A00723465346D3465346E34743461347234B8
:10103A00203450344F3452345434413400340A3456
:10104A000D340A340D3420342B3420347034613496
:10105A0072346134203469346E34633472346534E2
:10106A006D3465346E3474346134723420345034DF
:10107A004F3452345434413400340A340D340A346F
:10108A000D34203456346F3474346C3461346A3419
:10109A0065342034643465346C34203450344F342D
:1010AA0054342034563431343A34203400340A3437
:1010BA000D340A340D34203456346F3474346C349D
:1010CA0061346A3465342034643465346C342034D1
:1010DA0050344F3454342034563432343A34203471
:1010EA0000340A340D340A340D34203456346F3443
:1010FA0074346C3461346A3465342034643465344D
:10110A006C34203450344F345234543441343A34E9
:0E111A00203400340A340D340A340D3400340D
:1018BC00831203131A080800F00070088312031334
:1018CC009300080083160313141C6D2C6E2C682CCB
:1018DC00080064008001840A04060319003404061D
:1018EC00702CF00083160313981C7D2C7E2C782C06
:1018FC00700883120313990008008316031318123F
:10190C001815831603178715673083160313990070
:10191C009A018312031398171813181683160313BE
:10192C0098160800F300831603138712731D9F2C5F
:10193C00A02CA42C720894008715A82C7008720493
:10194C009400871173087104831203139400080028
:10195C006430F7000030F8007C0883120313A600F3
:10196C00A7012608F9002708FA000A128A15812611
:10197C000A128A15770883120313A8002808FC00A2
:10198C007C080800F200DA2C720884000A128A150E
:10199C0000200A128A150A128A1577240A128A154F
:1019AC000130F1007108F207720884000A128A15DE
:1019BC0000200A128A15003A031DE52CE62CCA2CCD
:1019CC000800831603178801890183160313850108
:1019DC009030870007154030831203138700850170
:1019EC00831603130F178F160F120F140A128A1572
:1019FC0083240A128A15F001F101F20120300A1237
:101A0C008A1598240A128A150800F401F501701C35
:101A1C00102D112D172D7208F4070318F50A7308F1
:101A2C00F50701300310F20DF30DFF3E031D182DC9
:101A3C0001300310F10CF00CFF3E031D1F2D70083C
:101A4C007104031D2A2D2B2D0D2D7508F100740822
:101A5C00F0000800F800F401F5017008F200F30141
:101A6C007208F6007308F700781C3D2D3E2D442DAE
:101A7C007608F4070318F50A7708F5070130031008
:101A8C00F60DF70DFF3E031D452D0310F80C7808DD
:101A9C00031D512D522D3A2D7508F1007408F000DC
:101AAC0008000A30F7000030F8007C08831203139A
:101ABC00A600A7012608F2002708F3006430F00006
:101ACC000030F1000A128A1528260A128A157108AC
:101ADC00FA007008F9000A128A1581260A128A1572
:101AEC00770883120313A8002808FC007C08080060
:101AFC007D08F900FA017908F2007A08F3006430E5
:101B0C00F0000030F1000A128A1528260A128A15F4
:101B1C007108FC007008FB000A30F0000030F10086
:101B2C007C08F3007B08F2000A128A1528260A1298
:101B3C008A157008F9007908FD007D080800F4008A
:101B4C003030F3007308F4073030F3007308F107FA
:101B5C003030F3007308F20774080A128A157724E0
:101B6C000A128A152E300A128A1577240A128A153F
:101B7C0071080A128A1577240A128A1572080A1239
:101B8C008A1577240A128A1556300A128A15772478
:101B9C000A128A150800831203130711C730F100CB
:101BAC00D72DF10BD62DDA2DDB2D00300A128A152C
:101BBC0062240A128A150A128A1105200A128A1541
:101BCC00F100710883120313E500C730F100EE2D0C
:101BDC00F10BED2DF12DF22D831203130715C730E8
:101BEC00F100F82DF10BF72DFB2DFC2D83120313B7
:101BFC000711C730F100022EF10B012E052E062E17
:101C0C0001300A128A1562240A128A150A128A11E4
:101C1C0005200A128A15F100710883120313E400DF
:101C2C00C730F100192EF10B182E1C2E1D2E83120D
:101C3C0003130715C730F100232EF10B222E262E8D
:101C4C00272E0800F601F31F2C2E2D2E342EF20910
:101C5C00F309F20A0319F30AF601F60AF11F372EFB
:101C6C00382E3D2EF009F109F00A0319F10A70081B
:101C7C0071040319422E432E722EF501F50A512ED2
:101C8C0001300310F00DF10DFF3E031D472E013006
:101C9C00F4007408F507F11F542E552E462E7108CA
:101CAC007302031D5B2E70087202031C5E2E5F2EE6
:101CBC00652E7008F2027108031CF303F302013065
:101CCC000310F10CF00CFF3E031D662E0130F502E3
:101CDC00031D712E722E552E76080319762E772E33
:101CEC007C2EF209F309F20A0319F30A7308F100C6
:101CFC007208F000080083120313A101F81F872E4D
:101D0C00882E8F2EF709F809F70A0319F80AA10192
:101D1C00A10AFA1F922E932E9C2EF909FA09F90AA0
:101D2C000319FA0A0130FB007B08A106A201A301EA
:101D3C00770878040319A32EA42EDB2EA001A00A89
:101D4C00B22E01300310F70DF80DFF3E031DA82E27
:101D5C000130FB007B08A007F81FB52EB62EA72E6E
:101D6C0001300310A20DA30DFF3E031DB72E780802
:101D7C007A02031DC32E77087902031CC62EC72EC8
:101D8C00CE2E7708F9027808031CFA03FA02221403
:101D9C0001300310F80CF70CFF3E031DCF2E013061
:101DAC00A002031DDA2EDB2EB62E21080319DF2E1E
:101DBC00E02EE52EA209A309A20A0319A30A2308FF
:101DCC00F8002208F70008000310831203133C0DDF
:101DDC003D0DBE003E08C4004408031DF62EF72E30
:101DEC00002F0030BD000030BC000030BB000030C4
:101DFC00BA00652F3A08BE003B08BF003C08C00083
:101E0C003D08C1001F300310C10CC00CBF0CBE0C30
:101E1C00FF3E031D092F3E08C2004208C300BC1739
:101E2C00FF30BA05FF30BB05FF30BC050030BD05E7
:101E3C009630C402C41F232F242F3E2F4408803A0F
:101E4C00973E03182A2F2B2F2C2FF72E013003101F
:101E5C00BD0CBC0CBB0CBA0CFF3E031D2D2F01306E
:101E6C00BE003E08C407031D3C2F3D2F2C2F552FC1
:101E7C0020304402031C432F442F502FF72E0130E7
:101E8C00BE000310BA0DBB0DBC0DBD0DBE0B472F14
:101E9C000130C4024408031D542F552F452F43080D
:101EAC000319592F5A2F652FBA09BB09BC09BD0953
:101EBC00BA0A0319BB0A0319BC0A0319BD0A0800A4
:101ECC00831203138C1E6B2F6C2FFF2F3030570295
:101EDC00031C712F722FFF2F3A3057020318772FE4
:101EEC00782FFF2F5708C50056084B3E8400450835
:101EFC00831380000130C5004508D6070330560215
:101F0C00031C892F8A2FFF2FD6014B08D03EF000DF
:101F1C00FF3003180030F1006430F2000030F300A1
:101F2C000A128A150B250A128A15710883120313DB
:101F3C00CF007008CE004C08D03EF000FF300318E4
:101F4C000030F1000A30F2000030F3000A128A155A
:101F5C000B250A128A15700883120313CE07031877
:101F6C00CF0A7108CF074D08D03EC500FF300318CB
:101F7C000030C6004508CE070318CF0A4608CF0725
:101F8C004E08F0004F08F1000030F11BFF30F2005A
:101F9C00F30001300A128A1177200A128A1573088D
:101FAC0083120313A7007208A6007108A50070081D
:101FBC00A4003F30A300FA30A2009F30A100BE3035
:101FCC00A0000A128A11B5220A128A158312031371
:101FDC002308BD002208BC002108BB002008BA0061
:101FEC000A128A15EA260A128A15831203133A0872
:041FFC008500080054
:04400E00D420FF3F7C
:00000001FF
