:020000040000FA
:060000000A128A11E92F2B
:10000C00F1004230F000F00B092800007108831257
:10001C0003138800071387160630F000F00B142822
:10002C0000008312031387170630F000F00B1C2816
:10003C0000008312031387130800F80078080319D3
:10004C00282829283D28F31F2C282D283D28700905
:10005C00FA007109FB007209FC007309FD00FA0A31
:10006C000319FB0A0319FC0A0319FD0A4528730836
:10007C00FD007208FC007108FB007008FA007308A0
:10008C00720471047004031D4C284D28562800304E
:10009C00F3000030F2000030F1000030F000DC28FA
:1000AC009630F4007408F90068280130F4007408E4
:1000BC00F90701300310FD0CFC0CFB0CFA0CFF3E95
:1000CC00031D6028FE307D05031D6D286E285B28FE
:1000DC008A280130F4007408F9070130FA0700305F
:1000EC0003180130FB07003003180130FC07003007
:1000FC0003180130FD0701300310FD0CFC0CFB0C48
:10010C00FA0CFF3E031D8228FF307D05031D8F284E
:10011C0090286F289C280130F9020130F40003105C
:10012C00FA0DFB0DFC0DFD0DF40B9528FC1B9F2807
:10013C00A028A628023079020318A528A628912801
:10014C007918A928AA28B228FF30FA05FF30FB0538
:10015C007F30FC05FF30FD050310F90C7908F40025
:10016C00F501F601F70118300310F40DF50DF60D3D
:10017C00F70DFF3E031DBA287408FA047508FB043A
:10018C007608FC047708FD0478080319CE28CF28DC
:10019C00D428F31FD228D328D428FD177D08F300C8
:1001AC007C08F2007B08F1007A08F000080083124A
:1001BC00031323088039A8002808AD002308A800E1
:1001CC002807A9002908B300A21FED28EE28EF2864
:1001DC00331433080319F328F4280329330A031DB5
:1001EC00F828F92801290030A3000030A2000030C3
:1001FC00A1000030A000A2170B290030A300003092
:10020C00A2000030A1000030A00027088039A8000F
:10021C002808AD062708A8002807A9002908B2005D
:10022C00A61F19291A291B293214320803191F2950
:10023C0020292F29320A031D242925292D29003094
:10024C00A7000030A6000030A5000030A400A617BF
:10025C0037290030A7000030A6000030A500003080
:10026C00A400320803193B293C2941293308031DFA
:10027C00402941294A290030A3000030A200003057
:10028C00A1000030A0003D2C2008A8002808F00098
:10029C0026080A128A15ED200A128A117108831297
:1002AC000313B9007008B8003808A800A901AA0106
:1002BC00AB012B08B1002A08B0002908AF002808B0
:1002CC00AE003908A800A901AA01AB012B08B700A0
:1002DC002A08B6002908B5002808B4002108A8008F
:1002EC002808F00025080A128A15ED200A128A1136
:1002FC00710883120313B9007008B8003808A800FD
:10030C00A901AA01AB012808AE072908031103189B
:10031C00013E03199229AF072A0803110318013E65
:10032C0003199929B0072B0803110318013E03196F
:10033C00A029B1073908A800A901AA01AB01280816
:10034C00B407290803110318013E0319AE29B50798
:10035C002A0803110318013E0319B529B6072B0807
:10036C0003110318013E0319BC29B7072208A80082
:10037C002808F00024080A128A15ED200A128A11A6
:10038C00710883120313B9007008B8003808A8006C
:10039C00A901AA01AB012808AE072908031103180B
:1003AC00013E0319DA29AF072A0803110318013E8D
:1003BC000319E129B0072B0803110318013E031997
:1003CC00E829B1073908A800A901AA01AB0128083E
:1003DC00B407290803110318013E0319F629B507C0
:1003EC002A0803110318013E0319FD29B6072B082F
:1003FC0003110318013E0319042AB7070830A8009B
:10040C000310AE0DAF0DB00DB10DA80B062A2108CF
:10041C00A8002808F00024080A128A15ED200A12F8
:10042C008A11710883120313B9007008B8003808D8
:10043C00A8003908A900AA01AB012808AE072908B1
:10044C0003110318013E03192C2AAF072A080311C4
:10045C000318013E0319332AB0072B0803110318A4
:10046C00013E03193A2AB1072008A8002808F00019
:10047C0025080A128A15ED200A128A1171088312B6
:10048C000313B9007008B8003808A8003908A9008F
:10049C00AA01AB012808AE07290803110318013E75
:1004AC000319592AAF072A0803110318013E03192F
:1004BC00602AB0072B0803110318013E0319672AA1
:1004CC00B1070830A8000310AE0DAF0DB00DB10D83
:1004DC00A80B692A2008A8002808F00024080A1292
:1004EC008A15ED200A128A11710883120313B900C0
:1004FC007008B8003808A8003908A900AA01AB0197
:10050C002808AE07290803110318013E03198F2A86
:10051C00AF072A0803110318013E0319962AB007E6
:10052C002B0803110318013E03199D2AB10721085A
:10053C00A8002808F00026080A128A15ED200A12D5
:10054C008A11710883120313B9007008B8003808B7
:10055C00A8003908A900AA01AB012808B40729088A
:10056C0003110318013E0319BC2AB5072A0803110D
:10057C000318013E0319C32AB6072B0803110318ED
:10058C00013E0319CA2AB7072208A8002808F00060
:10059C0025080A128A15ED200A128A117108831295
:1005AC000313B9007008B8003808A8003908A9006E
:1005BC00AA01AB012808B407290803110318013E4E
:1005CC000319E92AB5072A0803110318013E031978
:1005DC00F02AB6072B0803110318013E0319F72A5A
:1005EC00B7072208A8002808F00026080A128A1566
:1005FC00ED200A128A11710883120313B9007008D6
:10060C00B8003808A8003908A900AA01AB010830C5
:10061C000310A80DA90DAA0DAB0DFF3E031D0E2B4B
:10062C002808B407290803110318013E03191F2BCE
:10063C00B5072A0803110318013E0319262BB60728
:10064C002B0803110318013E03192D2BB7072E0895
:10065C00A8002F08A9003008AA003108AB001830F8
:10066C000310AB0CAA0CA90CA80CFF3E031D362BD7
:10067C002808B407290803110318013E0319472B56
:10068C00B5072A0803110318013E03194E2BB607B0
:10069C002B0803110318013E0319552BB70708301B
:1006AC00A8000310AE0DAF0DB00DB10DA80B572B5C
:1006BC0033083207A800A901A90D2808823EB8000A
:1006CC0029080318013EFF3EB900892B0130A80010
:1006DC000310B40DB50DB60DB70DA80B6E2BB11FD5
:1006EC00782B792B7A2B34140130A8000310AE0D23
:1006FC00AF0DB00DB10DA80B7C2BFF30B807031854
:10070C00B90AFF30B907B61F8C2B8D2B6C2BB2019D
:10071C00B11F912B922BAE2BFF302E05A800FF3072
:10072C002F05A900FF303005AA007F303105AB0042
:10073C002B082A04290428040319A52BA62BA92B62
:10074C00B201B20AAE2B341CAC2BAD2BAE2BA62BAC
:10075C0032080319B22BB32BE42B0130B407003051
:10076C0003180130B507003003180130B60700300C
:10077C0003180130B707371CC42BC52BE42B3408E6
:10078C00A8003508A9003608AA003708AB000130CC
:10079C00AC002B0DAB0CAA0CA90CA80CAC0BCF2BE2
:1007AC002B08B7002A08B6002908B5002808B400A1
:1007BC000130B8070318B90A0030B9073908803A74
:1007CC00FF0080307F02031DED2BFF303802031C2D
:1007DC00F02BF12BFC2B7F3083120313B7008030EE
:1007EC00B6000030B5000030B400312C8312031376
:1007FC003908803AFF0080307F02031D072C01303E
:10080C00380203180A2C0B2C172C003083120313FC
:10081C00B7000030B6000030B5000030B400AD01B8
:10082C00312C831203133808A8002808B300FF30BA
:10083C00B405FF30B5057F30B6050030B705331C65
:10084C00282C292C2A2CB6173308A8000310280CA6
:10085C00A9002908B7002D08A8002808B7043708F4
:10086C00A3003608A2003508A1003408A000080037
:10087C000A128A157A210A128A110A128A1538204C
:10088C000A128A115130F0000030F1000A128A1558
:10089C004A200A128A110030F000F1000A128A155F
:1008AC0014210A128A11710883160313A30070080D
:1008BC00A2000A128A1541200A128A1103308316EB
:1008CC000313B4000830B3007630B200B20B6C2CBA
:1008DC00B30B6C2CB40B6C2C00000A128A1538204C
:1008EC000A128A114130F0000030F1000A128A1508
:1008FC004A200A128A110030F000F1000A128A15FF
:10090C0014210A128A11710883160313A1007008AE
:10091C00A0000A128A1541200A128A11033083168C
:10092C000313B4000830B3007630B200B20B9C2C29
:10093C00B30B9C2CB40B9C2C00000A128A1538208B
:10094C000A128A118030F0000030F1000A128A1568
:10095C004A200A128A11F330F0000030F1000A121A
:10096C008A154A200A128A110A128A1541200A1283
:10097C008A11033083160313B4000830B3007630A9
:10098C00B200B20BC72CB30BC72CB40BC72C000096
:10099C000A128A1538200A128A118130F0000030B0
:1009AC00F1000A128A154A200A128A110030F0004E
:1009BC00F1000A128A1514210A128A117008831682
:1009CC000313B300B201320883120313EE00831633
:1009DC000313330883120313EF000030F000F1000F
:1009EC000A128A1514210A128A1170088312031331
:1009FC00EE070318EF0A7108EF070A128A15412057
:100A0C000A128A11033083160313B4000830B300A2
:100A1C007630B200B20B102DB30B102DB40B102D81
:100A2C000000FC3083120313EE05FF30EF056E0857
:100A3C00F0006F08F1000030F11BFF30F200F30002
:100A4C0001300A128A1123200A128A1173088312A8
:100A5C000313A7007208A6007108A5007008A40073
:100A6C004330A3002F30A200B830A1005230A000B8
:100A7C000A128A11DD200A128A1183120313230829
:100A8C00C1002208C0002108BF002008BE0047306A
:100A9C00BD008030BC000030BB000030BA000A1230
:100AAC008A159B230A128A11831203133D08DB005B
:100ABC003C08DA003B08D9003A08D800C230D7000D
:100ACC003B30D6006630D5006630D4000A128A1549
:100ADC0078250A128A11831203135708EB00560863
:100AEC00EA005508E9005408E8000A128A15FF22AA
:100AFC000A128A11831203136908EF006808EE00CA
:100B0C00831603132208F0002308F1000030F11BB8
:100B1C00FF30F200F30001300A128A1123200A126E
:100B2C008A11730883120313A7007208A6007108B8
:100B3C00A5007008A4003F30A300FC30A2002830B0
:100B4C00A100F630A0000A128A11DD200A128A11C7
:100B5C00831203132308EB002208EA002108E900A2
:100B6C002008E8000A128A15FF220A128A11831241
:100B7C000313690883160313A30083120313680875
:100B8C0083160313A2002008F0002108F1000030A6
:100B9C00F11BFF30F200F30001300A128A112320FE
:100BAC000A128A11730883120313A7007208A60095
:100BBC007108A5007008A4004230A3000530A20003
:100BCC005130A100EC30A0000A128A11DD200A126B
:100BDC008A11831203132308EB002208EA00210870
:100BEC00E9002008E8000A128A15FF220A128A116D
:100BFC0083120313690883160313A10083120313D2
:100C0C00680883160313A0006430F6000030F70068
:100C1C002308F9002208F8000A128A151C220A126D
:100C2C008A117608303E83160313B2003208AC00EA
:100C3C000A30F6000030F7002C08B200B30132087D
:100C4C00F0003308F1009C30F200FF30F3000A1280
:100C5C008A15C8200A128A118316031322087007FA
:100C6C00F80023080318230A7107F9000A128A15E1
:100C7C001C220A128A117608F03E83160313B40064
:100C8C003408AB009C30B2003208F0002C080A1279
:100C9C008A1561200A128A1183160313B300F630E9
:100CAC00B4003408F0002B080A128A1561200A12CD
:100CBC008A118316031333072207D03EB50035087B
:100CCC00AA006430F6000030F7002108F900200873
:100CDC00F8000A128A151C220A128A117608303E74
:100CEC0083160313B2003208A9000A30F600003054
:100CFC00F7002908B200B3013208F0003308F10004
:100D0C009C30F200FF30F3000A128A15C8200A1238
:100D1C008A118316031320087007F80021080318A2
:100D2C00210A7107F9000A128A151C220A128A116B
:100D3C007608303E83160313B4003408A8009C30A8
:100D4C00B2003208F00029080A128A1561200A1232
:100D5C008A1183160313B300F630B4003408F00084
:100D6C0028080A128A1561200A128A1183160313A5
:100D7C0033072007303EB5003508A7006430F60075
:100D8C000030F700831203136F08F9006E08F800A7
:100D9C000A128A151C220A128A117608303E831612
:100DAC000313B2003208A6000A30F6000030F70038
:100DBC002608B200B3013208F0003308F1009C3071
:100DCC00F200FF30F3000A128A15C8200A128A11A9
:100DDC00831203136E087007F8006F0803186F0A6C
:100DEC007107F9000A128A151C220A128A11760858
:100DFC00303E83160313B4003408A5009C30B200B7
:100E0C003208F00026080A128A1561200A128A118B
:100E1C0083160313B300F630B4003408F000250831
:100E2C000A128A1561200A128A11831603133307DA
:100E3C00831203136E07303E83160313B500350877
:100E4C00A400F20100300A128A1576200A128A11C7
:100E5C0001300A128A15A4200A128A11F2010230FA
:100E6C000A128A1576200A128A11831603132C088B
:100E7C000A128A1106200A128A112E300A128A11BD
:100E8C0006200A128A11831603132B080A128A11E0
:100E9C0006200A128A11831603132A080A128A11D1
:100EAC0006200A128A11053083160313B200320889
:100EBC00F20002300A128A1576200A128A11831661
:100ECC00031329080A128A1106200A128A112E30DD
:100EDC000A128A1106200A128A1183160313280893
:100EEC000A128A1106200A128A1183160313270884
:100EFC000A128A1106200A128A110B308316031368
:100F0C00B2003208F20002300A128A1576200A1258
:100F1C008A118316031326080A128A1106200A1254
:100F2C008A118316031325080A128A1106200A1245
:100F3C008A118316031324080A128A1106200A1236
:100F4C008A1183120313EF1FAC2FAD2FD32FFF3059
:100F5C00F000FF30F1006F08F3006E08F2000A1287
:100F6C008A15C8200A128A11710883120313EF0024
:100F7C007008EE000A3083160313B2003208F20038
:100F8C0002300A128A1576200A128A112D300A12A2
:100F9C008A1106200A128A11432C0A308316031375
:100FAC00B2003208F20002300A128A1576200A12B8
:100FBC008A1120300A128A1106200A128A11432C37
:100FCC000A128A11002883120313EE01EF01831613
:100FDC000313A001A101A201A301A401A501A60173
:100FEC00A701A801A901AA01AB01AC0183010A1256
:100FFC008A113E2C08308A000408840A82070034C7
:10100C0053343134203420342034203453343234AB
:10101C0020342034203420342034533433340034FE
:101070000A128A1554200A128A15831603131114B2
:1010800008000A128A1554200A128A1583160313BF
:10109000111508000A128A1554200A128A157008C0
:1010A000831203139300080083160313141959289D
:1010B0005A28542811081F39031D5F286028542816
:1010C0000800F300F201731C662867286B2870087B
:1010D000F1007108F2070310F00D0310F30C730810
:1010E000031D73287428632872080800F30073082E
:1010F00003197B287C2884287208C03E0A128A15AE
:101100008C200A128A158B287208803E0A128A15D2
:101110008C200A128A150800F1007108831203134B
:101120008800871207130630F000F00B95280000A6
:101130008312031387170630F000F00B9D28000080
:101140008312031387130800F300BB284230F20018
:10115000F20BA8280000730884000A128A150020E8
:101160000A128A150A128A1106200A128A150130FB
:10117000F2007208F307730884000A128A1500202F
:101180000A128A15003A031DC628C728A628080097
:10119000F401F501701CCD28CE28D4287208F4077C
:1011A0000318F50A7308F50701300310F20DF30D6B
:1011B000FF3E031DD52801300310F10CF00CFF3E5B
:1011C000031DDC2870087104031DE728E828CA28DD
:1011D0007508F1007408F0000800F800F401F5014A
:1011E0007008F200F3017208F6007308F700781C2B
:1011F000FA28FB2801297608F4070318F50A77086E
:10120000F50701300310F60DF70DFF3E031D02290F
:101210000310F80C7808031D0E290F29F72875080C
:10122000F1007408F00008000A128A1554200A120E
:101230008A158316031391150A128A1554200A126F
:101240008A15831203131308F200F3017208F400E5
:101250007308F5000A128A1554200A128A157003C1
:101260007104031D3429352939298316031391127A
:101270003C2983160313911611167508F1007408A2
:10128000F000080028308312031394008316031320
:101290009101831203132008A4002108A50022084D
:1012A000A6002308A70002300310A40DA50DA60D6B
:1012B000A70DFF3E031D54292708F3002608F2005E
:1012C0002508F1002408F0000030F7007A30F6001D
:1012D0001230F5000030F4000A128A15B6210A1205
:1012E0008A157008FF3E8316031393009401871537
:1012F0000716080083160317880189018316031354
:101300008501860188018312031385018601880106
:10131000831603130F178F160F160F148312031360
:10132000EE01EF0183160313A001A101A201A301A5
:10133000AC01AB01AA01A901A801A701A601A50161
:10134000A4010A128A1585220A128A150030831216
:101350000313A3000130A2008630A100A030A0003A
:101360000A128A1542210A128A1508000030FC0070
:101370000030FB000030FA000030F90073087204FE
:10138000710470040319C529C629132AFD01FD0A39
:10139000D6290130F8000310F00DF10DF20DF30D18
:1013A000F80BCB290130F8007808FD07F31FD92985
:1013B000DA29C9290130F8000310F90DFA0DFB0DE7
:1013C000FC0DF80BDC2973087702031DF129720864
:1013D0007602031DF12971087502031DF1297008B9
:1013E0007402031CF429F529042A7008F402710818
:1013F000031C710FF5027208031C720FF6027308CA
:10140000031C730FF702791401300310F30CF20C74
:10141000F10CF00CFF3E031D052A0130FD02031DF7
:10142000122A132ADA297C08F3007B08F2007A08D2
:10143000F1007908F000080083120313A101F71FDF
:10144000222A232A2A2AF609F709F60A0319F70A93
:10145000A101A10AF91F2D2A2E2A372AF809F90914
:10146000F80A0319F90A0130FA007A08A106A20164
:10147000A3017608770403193E2A3F2A762AA001A1
:10148000A00A4D2A01300310F60DF70DFF3E031D93
:10149000432A0130FA007A08A007F71F502A512A80
:1014A000422A01300310A20DA30DFF3E031D522A54
:1014B00077087902031D5E2A76087802031C612AE8
:1014C000622A692A7608F8027708031CF903F902F0
:1014D000221401300310F70CF60CFF3E031D6A2A9C
:1014E0000130A002031D752A762A512A210803190A
:1014F0007A2A7B2A802AA209A309A20A0319A30A2D
:101500002308F7002208F60008008312031388015D
:10151000831603138801871207138713831203139B
:101520008712071387132A30F3008D30F200F20B75
:10153000972AF30B972A9C2A30300A128A158C209E
:101540000A128A150D30F300FB30F200F20BA62AC6
:10155000F30BA62AAB2A30300A128A158C200A1205
:101560008A154230F200F20BB32A000030300A1222
:101570008A158C200A128A154230F200F20BBE2A1C
:10158000000038300A128A158C200A128A1542305F
:10159000F200F20BC92A000008300A128A158C20CA
:1015A0000A128A154230F200F20BD42A00000130F0
:1015B0000A128A158C200A128A154230F200F20BA8
:1015C000DF2A000004300A128A158C200A128A15BC
:1015D0004230F200F20BEA2A00004230F200F20B35
:1015E000EF2A000006300A128A158C200A128A158A
:1015F0000C300A128A158C200A128A150800031072
:10160000831203136A0D6B0D83160313AD002D08AF
:1016100083120313ED006D08031D0F2B102B192BE4
:101620000030EB000030EA000030E9000030E80054
:101630009A2B680883160313AD00831203136908FD
:1016400083160313AE00831203136A088316031371
:10165000AF00831203136B0883160313B0001F300F
:101660000310B00CAF0CAE0CAD0CFF3E031D302BC5
:101670002D08B100310883120313EC00EA17FF3084
:10168000E805FF30E905FF30EA050030EB0596304C
:10169000ED02ED1F4C2B4D2B6B2B6D08803A973EC6
:1016A0000318532B542B552B102B01300310EB0C2C
:1016B000EA0CE90CE80CFF3E031D562B01308316A3
:1016C0000313AD002D0883120313ED07031D692BCF
:1016D0006A2B552B8A2B20306D02031C702B712B2B
:1016E000852B102B013083160313AD0003108312DA
:1016F0000313E80DE90DEA0DEB0D83160313AD0B93
:10170000762B013083120313ED026D08031D892B24
:101710008A2B722B6C0803198E2B8F2B9A2BE809BE
:10172000E909EA09EB09E80A0319E90A0319EA0ACF
:101730000319EB0A08008312031341088039C20021
:101740004208CB004108C2004207C3004308D20050
:10175000C01FAB2BAC2BAD2B521452080319B12B6D
:10176000B22BC22B520A031DB62BB72BBF2B003056
:10177000C1000030C0000030BF000030BE00C01704
:10178000C101CA2B0030C1000030C0000030BF00D2
:101790000030BE003D088039C2004208CB063D083B
:1017A000C2004207C3004308D300BC1FD82BD92B6B
:1017B000DA2B531453080319DE2BDF2BEF2B530ABC
:1017C000031DE32BE42BEC2B0030BD000030BC00EC
:1017D0000030BB000030BA00BC17BD01F72B003051
:1017E000BD000030BC000030BB000030BA003D0836
:1017F0003C043B043A04031DFE2BFF2B182C003045
:10180000C1000030C0000030BF000030BE0080309A
:10181000C0047F30C1044B08C2004208C104410823
:10182000BD004008BC003F08BB003E08BA00772D51
:101830005208031D1C2C1D2C262C0030BD0000302E
:10184000BC000030BB000030BA00772D5208C20047
:10185000C3014308C50053084202C400031CC5036A
:1018600044087F3ECC0045080318013E003ECD00F1
:101870004108CA004008C9003F08C8003E08C70028
:101880000030C1000030C0000030BF000030BE009A
:101890000030D1000030D0000030CF000030CE004A
:1018A000D3019C2C53080319562C572C772C01304C
:1018B000C2000310C70DC80DC90DCA0DC20B592CAB
:1018C0000130C2000310BE0DBF0DC00DC10DC20B13
:1018D000622CD11F6C2C6D2C6E2C3E140130C2007A
:1018E0000310CE0DCF0DD00DD10DC20B702C3D08C5
:1018F0004A02031D852C3C084902031D852C3B0828
:101900004802031D852C3A084702031C882C892CA9
:10191000982C51173A08C7023B08031C3B0FC8021A
:101920003C08031C3C0FC9023D08031C3D0FCA02C2
:101930000130C2004208D3071A305302031CA12C05
:10194000A22C522C4A084904480447040319A92C24
:10195000AA2CC92C4E14C92C0130C2000310BE0D94
:10196000BF0DC00DC10DC20BAE2CD11FB82CB92CB0
:10197000BA2C3E140130C2000310CE0DCF0DD00D95
:10198000D10DC20BBC2CFF30CC070318CD0AFF30A1
:10199000CD07C01FCC2CCD2CAC2CD301D11FD12C0A
:1019A000D22CEE2CFF304E05C200FF304F05C30095
:1019B000FF305005C4007F305105C5004508440480
:1019C000430442040319E52CE62CE92CD301D30A85
:1019D000EE2C3E1CEC2CED2CEE2CE62C53080319BF
:1019E000F22CF32C242D0130BE07003003180130F7
:1019F000BF07003003180130C00700300318013062
:101A0000C107411C042D052D242D3E08C2003F08AE
:101A1000C3004008C4004108C5000130C600450DA0
:101A2000C50CC40CC30CC20CC60B0F2D4508C1005D
:101A30004408C0004308BF004208BE000130CC0784
:101A40000318CD0A0030CD074D08803AFF008030E2
:101A50007F02031D2D2DFF304C02031C302D312D34
:101A60003F2DFF3083120313CC000030CD00003037
:101A7000C1000030C0000030BF000030BE00831243
:101A800003134D08803AFF0080307F02031D4A2D6A
:101A900001304C0203184D2D4E2D5B2D8312031384
:101AA000CC01CD010030C1000030C0000030BF00CB
:101AB0000030BE00CB01831203134C08C200420861
:101AC000D200521C642D652D672DC0176B2D7F3001
:101AD000C2004208C0055208C2000310420CC300F5
:101AE0004308C1004B08C2004208C1040F2C080083
:101AF0008312031357088039DC005C08E4005708A0
:101B0000DC005C07DD005D08E600D61F882D892D0E
:101B10008A2D6614660803198E2D8F2D9F2D660A57
:101B2000031D932D942D9C2D0030D7000030D6003E
:101B30000030D5000030D400D617D701A72D0030D3
:101B4000D7000030D6000030D5000030D4005B084C
:101B50008039DC005C08E500650864060319B12DD6
:101B6000B22DB32D64175B08DC005C07DD005D0857
:101B7000E500DA1FBC2DBD2DBE2D651465080319C7
:101B8000C22DC32DD32D650A031DC72DC82DD02D01
:101B90000030DB000030DA000030D9000030D8001F
:101BA000DA17DB01DB2D0030DB000030DA0000301B
:101BB000D9000030D800660865020318E02DE12D39
:101BC000252E641FE42DE52DE92D8030DC005C0816
:101BD000E4066608DC005C08E7006508DC005C08D9
:101BE000E6006708DC005C08E5005408DC005C08DF
:101BF000E7005808DC005C08D4006708DC005C08DB
:101C0000D8005508DC005C08E7005908DC005C08D7
:101C1000D5006708DC005C08D9005608DC005C08C9
:101C2000E7005A08DC005C08D6006708DC005C08A6
:101C3000DA005708DC005C08E7005B08DC005C08A1
:101C4000D7006708DC005C08DB00E7016508DC0002
:101C5000DD015D08DF0066085C02DE00031CDF03B7
:101C60005F08803AFF0080307F02031D392E1A3052
:101C70005E02031C3C2E3D2E7A2E8312031357085E
:101C8000560455045404031D462E482E0130492E97
:101C90000030DC005C08E7000030D7000030D600E0
:101CA0000030D5000030D4006508DC005C08E60098
:101CB000822E671C5C2E5D2E662E6708DC000310EA
:101CC0005C0C0138DD005D08E700682E0310E70CAE
:101CD000541C6B2E6C2E6D2EE7170130DC00570D57
:101CE000D70CD60CD50CD40CDC0B6F2E0130DC00DD
:101CF0005C08E6078312031365086602031C812E45
:101D0000822E592E641B852E862ED12E6608031D29
:101D10008A2E8B2E942E0030D7000030D600003053
:101D2000D5000030D400FF2F5808D40759080311FC
:101D30000318013E03199D2ED5075A0803110318F5
:101D4000013E0319A42ED6075B0803110318013EB8
:101D50000319AB2ED707571CAE2EAF2E852F671C4D
:101D6000B22EB32EBC2E6708DC0003105C0C0138C9
:101D7000DD005D08E700BE2E0310E70C541CC12EE9
:101D8000C22EC32EE7170130DC00570DD70CD60C3E
:101D9000D50CD40CDC0BC52E0130DC005C08E6074A
:101DA000852F5708803AFF005B08803A7F02031DA9
:101DB000E32E5A085602031DE32E59085502031D4F
:101DC000E32E580854020318E62EE72E3F2FFF306B
:101DD000DC00FF30DD00FF30DE00FF30DF005808A0
:101DE000E0005908E1005A08E2005B08E3005408EB
:101DF000E0025508031C550FFE2EFF2EE102560887
:101E0000031C560F042F052FE2025708031C570F1F
:101E10000A2F0B2FE3026008DC0761080318610F2B
:101E2000122F132FDD0762080318620F182F192FC6
:101E3000DE0763080318630ADF075F08D7005E0840
:101E4000D6005D08D5005C08D4008030DC005C085A
:101E5000E406E709E70A6708031D2F2F302F4D2FEF
:101E60000130D407003003180130D50700300318C3
:101E70000130D607003003180130D7074D2F58081E
:101E8000D4025908031C590FD5025A08031C5A0FD3
:101E9000D6025B08031C5B0FD70257085604550493
:101EA0005404031D542F552F812F6708031D592FEC
:101EB0005A2F812F0030D7000030D6000030D500D7
:101EC0000030D400FF2F0130DC000310D40DD50DFD
:101ED000D60DD70DDC0B652FE71F6F2F702F712FDD
:101EE0005414671C742F752F782F0314E70D7A2F65
:101EF0000310E70D660803197E2F7F2F812F013015
:101F0000E602D61F842F852F632FE501E71F892F57
:101F10008A2F982F67087F3903198F2F902F932FBF
:101F2000E501E50A982F541C962F972F982F902F94
:101F3000650803199C2F9D2FD12F0130D407003045
:101F400003180130D507003003180130D6070030E0
:101F500003180130D707571CAE2FAF2FD12F5408CD
:101F6000DC005508DD005608DE005708DF000130B0
:101F7000E0005F0DDF0CDE0CDD0CDC0CE00BB92F9C
:101F80005F08D7005E08D6005D08D5005C08D40065
:101F9000660A0319CC2FCD2FD12F0130DC005C084D
:101FA000E607660A0319D52FD62FDB2F6608031D17
:101FB000DA2FDB2FE92F0030D7000030D6000030B9
:101FC000D5000030D4006608031DE72FE82FE92F65
:101FD000E401661CEC2FED2FEF2FD617F32F7F3087
:101FE000DC005C08D6056608DC0003105C0CDD0034
:101FF0005D08D700E41FFD2FFE2FFF2FD717080025
:04400E00D420FF3F7C
:00000001FF
