:020000040000FA
:060000000A128A11122809
:10000800FE00030EF6000408F7000A08F800831241
:1000180003137F08F9000A128A1160290A128A114B
:100028001528F001F101F201F301F40183010A122C
:100038008A11A92983120313A2006D289F121F1287
:100048009F111F11A1289F121F129F111F15A12870
:100058009F121F129F151F11A1289F121F129F1573
:100068001F15A1289F121F169F111F11A1289F124B
:100078001F169F111F15A1289F121F169F151F11CC
:10008800A1289F121F169F151F15A1289F161F1222
:100098009F111F11A1289F161F129F111F15A1281C
:1000A8009F161F129F151F11A1289F161F129F151B
:1000B8001F15A1289F161F169F111F11A1289F16F3
:1000C8001F169F111F15A1289F121F129F111F1184
:1000D800A1282208A000A1012108003A03197528C7
:1000E80068282008003A03192228013A031927280A
:1000F800033A03192C28013A03193128073A03193E
:100108003628013A03193B28033A03194028013AD3
:10011800031945280F3A03194A28013A03194F28A9
:10012800033A03195428013A03195928073A0319BD
:100138005E28013A0319632868280800831203130C
:10014800A601A11FA828A928B028A009A109A00ACA
:100158000319A10AA601A60AA31FB328B428BD281B
:10016800A209A309A20A0319A30A0130A4002408BA
:10017800A606A701A801200821040319C428C52838
:10018800FC28A501A50AD32801300310A00DA10D54
:10019800FF3E031DC9280130A4002408A507A11F9C
:1001A800D628D728C82801300310A70DA80DFF3E70
:1001B800031DD82821082302031DE4282008220251
:1001C800031CE728E828EF282008A2022108031CBE
:1001D800A303A302271401300310A10CA00CFF3EB7
:1001E800031DF0280130A502031DFB28FC28D72891
:1001F80026080319002901290629A709A809A70A19
:100208000319A80A2808A1002708A0000800203020
:1002180083160317880089018316031385010330A9
:100228008600870188010130890083120313850144
:100238008601870188018901831603130F178F161A
:100248000F120F148112011281110115811401146A
:10025800EC308312031381008316031381131514E2
:100268009514161496148B170B118B168B150B10EF
:1002780005300A128A111E200A128A1183160313E6
:100288001F129F12831203131F139F178316031342
:100298009F13831203131F140F3083120313A30039
:1002A800A30B54295729831203139F14F201F40155
:1002B800F301F101F00108000B1C6329642974297A
:1002C8000618672968296D290130F5007508850722
:1002D80073298618702971297329013085020B103A
:1002E8000B1D772978299E2988017208031D7D290D
:1002F8007E298B2908147308013E84000A128A118A
:1003080020220A128A118700F201F20A9B2972033D
:10031800031D8F2990299B2988147408013E8400A5
:100328000A128A1120220A128A118700F2010B117F
:10033800EC3081007908FF0078088A00770884008B
:10034800760E8300FE0E7E0E09000A128A110B211A
:100358000A128A11831203130508AD002D08F00054
:100368009F18B729B829C6291E08AD002D08F10025
:100378000F3083120313AD00AD0BC029C3298312BC
:1003880003139F1471080A128A1136220A128A115D
:1003980083120313AD002D08F40071080A128A11A4
:1003A800EF210A128A1183120313AD002D08F300FE
:1003B800700871020318E129E229E4298910AE299D
:1003C80070087102031CE929EA29AE298914AE29AB
:1003D8000A128A11122883120313AC000A30A000F3
:1003E8000030A1002C08A900AA012908A2002A08A7
:1003F800A3000A128A11A2200A128A118312031377
:100408002008AB002B08F300080083120313A30095
:10041800A201231C102A112A152A2008A10021084C
:10042800A2070310A00D0310A30C2308031D1D2A07
:100438001E2A0D2A2208080002308A000408840AAD
:10044800820700343F3406345B344F3466346D34ED
:100458007D3407347F34673477347C3439345E3400
:100468007934713483120313A600F630A4002408EB
:10047800A00073080A128A1109220A128A1183122B
:0C04880003132607A5002508F400080057
:04400E00D420FF3F7C
:00000001FF
