:020000040000FA
:060000000A128A110C280F
:10000800FE00030EF1000A08F2000A128A11F8280D
:100018000A128A110F28F701F801F901FA0183126F
:100028000313A001A101A201A30183010A128A11ED
:100038001D280A128A11B0210A128A118312031389
:100048002203031D282829289928861706138612B3
:10005800043084000A128A11E9210A128A118500E3
:10006800043083120313A6000C30A5003330A4001B
:10007800A40B3C28A50B3C28A60B3C280330840085
:100088000A128A11E9210A128A11831203138500C0
:10009800063083120313A6001330A500AD30A40068
:1000A800A40B5428A50B5428A60B54288312031319
:1000B800861306178612023084000A128A11E92173
:1000C8000A128A118500043083120313A6000C302B
:1000D800A5003330A400A40B6F28A50B6F28A60B2E
:1000E8006F288312031386130613861601308400C3
:1000F8000A128A11E9210A128A1185000630831230
:100108000313A6001330A500AD30A400A40B8A2861
:10011800A50B8A28A60B8A288312031386130613B5
:1001280086128501A201F901F90A7903031D9D28A8
:100138009E28B02878080A128A115F210A128A11AB
:1001480083120313870077080A128A115F210A12A3
:100158008A11831203138800413083120313A50008
:10016800ED30A400A40BB628A50BB628BB28083090
:100178007806031DC028C128E228023084000A122C
:100188008A11E9210A128A118312031385000914BE
:100198008910A201F9010B3083120313A60026303F
:1001A800A5005D30A400A40BD728A50BD728A60B63
:1001B800D72883120313850189012228083077067E
:1001C800031DE728E8282228033084000A128A1130
:1001D800E9210A128A118312031385000910891470
:1001E800CD280A128A110C280B1CFB28FC283B2955
:1001F8008312031306180129022907290130F00088
:100208007008A207392986180A290B292029790399
:10021800031D0F29102920290130F0007008A107BB
:100228000A302106031D19291A2939290130F0003D
:100238007008F807A1013929061923292429392921
:100248007903031D2829292939290130F00070086C
:10025800A0070A302006031D322933293929013025
:10026800F0007008F707A00139290B1058290B1D59
:100278003E293F2958290130F000700883120313E2
:10028800A30704302306031D4A294B2955290130A9
:10029800F0007008FA077A0A031D532954295529D2
:1002A800FA010B113C30810072088A00710E83003C
:1002B800FE0E7E0E0900F5008929F601AE29F60129
:1002C800F60AAE290330F3007308F600AE290730AA
:1002D800F3007308F600AE290F30F3007308F60038
:1002E800AE291F30F3007308F600AE293F30F30043
:1002F8007308F600AE297F30F3007308F600AE29C4
:10030800FF30F3007308F600AE297508F300F40116
:100318007408003A03199129AE297308003A0319A1
:100328006129013A03196329033A03196629013A35
:1003380003196B29073A03197029013A031975291A
:10034800033A03197A29013A03197F290F3A031945
:100358008429AE29760808008316031788018901C5
:1003680083160313850107308600870188018901F8
:100378008312031385018601870188018901703082
:10038800831603138F040F1481128111073081041F
:100398003C30831203138100831603138113151451
:1003A800951415151610961016110B108B150B10A9
:1003B8008B160B11FA0183120313A301A201F90191
:1003C800F801F701A101A001080001308A00040822
:1003D800840A82070034FC346034DA34F234663438
:0A03E800B634BE34E034FE34F634BF
:04400E00D420FF3F7C
:00000001FF
